{
  "contractName": "ethereumLocker",
  "abi": [
    {
      "anonymous": false,
      "inputs": [
        {
          "indexed": false,
          "internalType": "uint256",
          "name": "expire",
          "type": "uint256"
        },
        {
          "indexed": false,
          "internalType": "uint256",
          "name": "amount",
          "type": "uint256"
        }
      ],
      "name": "LockAdded",
      "type": "event"
    },
    {
      "inputs": [
        {
          "internalType": "uint256",
          "name": "lockTime",
          "type": "uint256"
        }
      ],
      "name": "lockEther",
      "outputs": [],
      "stateMutability": "payable",
      "type": "function",
      "payable": true
    },
    {
      "inputs": [],
      "name": "withdraw",
      "outputs": [],
      "stateMutability": "payable",
      "type": "function",
      "payable": true
    }
  ],
  "bytecode": "0x608060405234801561001057600080fd5b506103c0806100206000396000f3fe6080604052600436106100295760003560e01c80633ccfd60b1461002e5780633da1d26614610038575b600080fd5b610036610054565b005b610052600480360381019061004d9190610220565b61014c565b005b6000803373ffffffffffffffffffffffffffffffffffffffff1673ffffffffffffffffffffffffffffffffffffffff168152602001908152602001600020600001544210156100a257600080fd5b60008060003373ffffffffffffffffffffffffffffffffffffffff1673ffffffffffffffffffffffffffffffffffffffff168152602001908152602001600020905060008160010154905060008260000181905550600082600101819055503373ffffffffffffffffffffffffffffffffffffffff166108fc829081150290604051600060405180830381858888f19350505050158015610147573d6000803e3d6000fd5b505050565b6000341161015957600080fd5b60008060003373ffffffffffffffffffffffffffffffffffffffff1673ffffffffffffffffffffffffffffffffffffffff168152602001908152602001600020905062015180826101aa91906102db565b426101b59190610285565b81600001819055503481600101819055507ff16a078873138f569966582ef9d0d9ac2216f2c4144852d878f58ab167939c31816000015482600101546040516101ff92919061025c565b60405180910390a15050565b60008135905061021a81610373565b92915050565b6000602082840312156102365761023561036e565b5b60006102448482850161020b565b91505092915050565b61025681610335565b82525050565b6000604082019050610271600083018561024d565b61027e602083018461024d565b9392505050565b600061029082610335565b915061029b83610335565b9250827fffffffffffffffffffffffffffffffffffffffffffffffffffffffffffffffff038211156102d0576102cf61033f565b5b828201905092915050565b60006102e682610335565b91506102f183610335565b9250817fffffffffffffffffffffffffffffffffffffffffffffffffffffffffffffffff048311821515161561032a5761032961033f565b5b828202905092915050565b6000819050919050565b7f4e487b7100000000000000000000000000000000000000000000000000000000600052601160045260246000fd5b600080fd5b61037c81610335565b811461038757600080fd5b5056fea2646970667358221220a7d3807e343d49b2c987ca8e865680f04684f8378c5026b4f03c1f694267114864736f6c63430008060033",
  "immutableReferences": {},
  "source": "pragma solidity ^0.8.6;\n\ncontract ethereumLocker {\n\n    event LockAdded(uint256 expire, uint256 amount);\n\n    struct locked{\n        uint256 expire;\n        uint256 amount;\n    }\n\n    mapping(address => locked) users;\n\n    function lockEther(uint256 lockTime) public payable {\n        require(msg.value > 0);\n        locked storage userInfo = users[msg.sender];\n        userInfo.expire = block.timestamp + lockTime * 1 days;\n        userInfo.amount = msg.value;\n        emit LockAdded(userInfo.expire, userInfo.amount);\n    }\n\n    function withdraw() public payable {\n        require(block.timestamp >= users[msg.sender].expire);\n        locked storage userInfo = users[msg.sender];\n        uint256 value = userInfo.amount;\n        userInfo.expire = 0;\n        userInfo.amount = 0;\n        payable(msg.sender).transfer(value);\n    }\n}\n",
  "sourcePath": "/Users/vincent.vanhassel/projet/transit/blockchain/contracts/ethereumLocker.sol",
  "compiler": {
    "name": "solc",
    "version": "0.8.6+commit.11564f7e.Emscripten.clang"
  },
  "schemaVersion": "3.3.3",
  "updatedAt": "2021-07-18T23:56:31.362Z",
  "networkType": "ethereum",
  "devdoc": {
    "kind": "dev",
    "methods": {},
    "version": 1
  },
  "userdoc": {
    "kind": "user",
    "methods": {},
    "version": 1
  }
}