{
  "contractName": "ethereumLocker",
  "abi": [
    {
      "anonymous": false,
      "inputs": [
        {
          "indexed": false,
          "internalType": "address",
          "name": "",
          "type": "address"
        },
        {
          "indexed": false,
          "internalType": "uint256",
          "name": "expire",
          "type": "uint256"
        },
        {
          "indexed": false,
          "internalType": "uint256",
          "name": "amount",
          "type": "uint256"
        }
      ],
      "name": "LockAdded",
      "type": "event"
    },
    {
      "anonymous": false,
      "inputs": [
        {
          "indexed": false,
          "internalType": "address",
          "name": "",
          "type": "address"
        },
        {
          "indexed": false,
          "internalType": "uint256",
          "name": "amount",
          "type": "uint256"
        },
        {
          "indexed": false,
          "internalType": "uint256",
          "name": "timer",
          "type": "uint256"
        }
      ],
      "name": "Withdraw",
      "type": "event"
    },
    {
      "inputs": [
        {
          "internalType": "uint256",
          "name": "lockTime",
          "type": "uint256"
        }
      ],
      "name": "lockEther",
      "outputs": [],
      "stateMutability": "payable",
      "type": "function",
      "payable": true
    },
    {
      "inputs": [],
      "name": "withdraw",
      "outputs": [],
      "stateMutability": "nonpayable",
      "type": "function"
    }
  ],
  "bytecode": "0x608060405234801561001057600080fd5b506102d9806100206000396000f3fe6080604052600436106100295760003560e01c80633ccfd60b1461002e5780633da1d26614610045575b600080fd5b34801561003a57600080fd5b50610043610073565b005b6100716004803603602081101561005b57600080fd5b81019080803590602001909291905050506101d2565b005b6000803373ffffffffffffffffffffffffffffffffffffffff1673ffffffffffffffffffffffffffffffffffffffff168152602001908152602001600020600001544210156100c157600080fd5b60008060003373ffffffffffffffffffffffffffffffffffffffff1673ffffffffffffffffffffffffffffffffffffffff168152602001908152602001600020905060008160010154905060008260000181905550600082600101819055503373ffffffffffffffffffffffffffffffffffffffff166108fc829081150290604051600060405180830381858888f19350505050158015610166573d6000803e3d6000fd5b507ff279e6a1f5e320cca91135676d9cb6e44ca8a08c0b88342bcdb1144f6511b56833836001015442856000015403604051808473ffffffffffffffffffffffffffffffffffffffff168152602001838152602001828152602001935050505060405180910390a15050565b600034116101df57600080fd5b60008060003373ffffffffffffffffffffffffffffffffffffffff1673ffffffffffffffffffffffffffffffffffffffff1681526020019081526020016000209050620151808202420181600001819055503481600101819055507f30ab1f3bd23f5ed9ed420ede5b3e57c61aa65f34d8301a9b38523280779685e73382600001548360010154604051808473ffffffffffffffffffffffffffffffffffffffff168152602001838152602001828152602001935050505060405180910390a1505056fea264697066735822122056bdc8e7fd5e03ee774e162643d11820e4769475ce48c3b117927ec95b8d14a264736f6c63430007060033",
  "immutableReferences": {},
  "source": "pragma solidity ^0.7.6;\n\ncontract ethereumLocker {\n\n    event LockAdded(address, uint256 expire, uint256 amount);\n    event Withdraw(address, uint256 amount, uint256 timer);\n\n    struct locked{\n        uint256 expire;\n        uint256 amount;\n    }\n\n    mapping(address => locked) users;\n\n    function lockEther(uint256 lockTime) public payable {\n        require(msg.value > 0);\n        locked storage userInfo = users[msg.sender];\n        userInfo.expire = block.timestamp + lockTime * 1 days;\n        userInfo.amount = msg.value;\n        emit LockAdded(msg.sender, userInfo.expire, userInfo.amount);\n    }\n\n    function withdraw() public {\n        require(block.timestamp >= users[msg.sender].expire);\n        locked storage userInfo = users[msg.sender];\n        uint256 value = userInfo.amount;\n        userInfo.expire = 0;\n        userInfo.amount = 0;\n        msg.sender.transfer(value);\n        emit Withdraw(msg.sender, userInfo.amount, (userInfo.expire-block.timestamp));\n    }\n}\n",
  "sourcePath": "/Users/vincent.vanhassel/projet/transit/blockchain/contracts/EthereumLocker.sol",
  "compiler": {
    "name": "solc",
    "version": "0.7.6+commit.7338295f.Emscripten.clang"
  },
  "schemaVersion": "3.3.3",
  "updatedAt": "2021-07-15T15:48:49.540Z",
  "networkType": "ethereum",
  "devdoc": {
    "kind": "dev",
    "methods": {},
    "version": 1
  },
  "userdoc": {
    "kind": "user",
    "methods": {},
    "version": 1
  }
}